:020000040800F2
:1000000080110020850A000855070008710A0008C1
:10001000710A0008710A0008710A00080000000057
:10002000000000000000000000000000890B000834
:10003000710A000800000000550B00085D19000857
:10004000090D0008090D0008090D0008090D000838
:10005000090D0008090D0008090D0008090D000828
:10006000090D0008090D0008090D0008090D000818
:10007000090D0008090D0008090D0008090D000808
:10008000090D0008090D0008090D0008090D0008F8
:10009000090D0008090D0008090D0008090D0008E8
:1000A000090D0008090D0008090D0008090D0008D8
:1000B000090D0008090D0008090D0008090D0008C8
:1000C000090D0008090D0008090D0008090D0008B8
:1000D000090D0008090D0008090D0008090D0008A8
:1000E000090D0008090D0008090D0008090D000898
:1000F000090D0008090D0008090D0008090D000888
:10010000090D0008090D0008090D0008090D000877
:10011000090D0008090D0008090D0008090D000867
:10012000090D0008090D0008090D0008090D000857
:10013000090D0008090D0008090D0008090D000847
:10014000090D0008090D0008090D0008090D000837
:10015000090D0008090D0008090D0008090D000827
:10016000090D0008090D0008090D0008090D000817
:10017000090D0008090D0008090D0008090D000807
:10018000090D0008090D0008090D0008090D0008F7
:04019000090D00084D
:1001940053B94AB9002908BF00281CBF4FF0FF31EA
:1001A4004FF0FF3000F00CB8ADF1080C6DE904CE4F
:1001B40000F008F8DDF804E0DDE9022304B070473C
:1001C400704700BF2DE9F04786468C460846089ED6
:1001D400154674461946002B40F0C2808542B2FA97
:1001E40082F245D94AB1C2F1200300FA02FC2EFA88
:1001F40003F3954043EA0C0C94404FEA154EA8B221
:10020400BCFBFEF8230C0EFB18CC08FB00F943EAF8
:100214000C43994528D9EB1808F1FF3704D29945C6
:1002240002D9A8F102072B44A3EB0903A4B2B3FB40
:10023400FEFC0EFB1C330CFB00F044EA0344A0421A
:1002440014D92C190CF1FF3304D2A04202D9ACF119
:1002540002032C44241A43EA07401EB1D44000236D
:1002640034607360BDE8F0874746DDE76346F1E735
:1002740092BB431B01214FEA154EAFB2B3FBFEFC08
:10028400200C0EFB1C330CFB07F840EA0343984593
:1002940062D9EB180CF1FF3004D2984502D9ACF1C5
:1002A40002002B44A3EB0803A4B2B3FBFEFC0EFB39
:1002B4001C330CFB07F744EA0344A7424ED92C191C
:1002C4000CF1FF3304D2A74202D9ACF102032C444F
:1002D400E41B43EA0040C0E7C2F1200320FA03F123
:1002E400954090402EFA03F303434FEA154EAFB204
:1002F400B1FBFEFC0EFB1C10190C0CFB07F841EAC9
:100304000041884504FA02F422D969180CF1FF303F
:1003140004D2884502D9ACF102002944A1EB0801BA
:100324009BB2B1FBFEFC0EFB1C110CFB07F743EA6E
:1003340001439F420ED9EB180CF1FF3104D29F42C6
:1003440002D9ACF102012B44DB1B41EA004192E7E4
:100354006046E3E76146F7E76046A3E76346B7E72D
:10036400834206D916B9002108467BE7C6E900E0B6
:10037400F9E7B3FA83F78FB9834201D3724508D8FA
:10038400BEEB020460EB030301209C461EB900216E
:1003940068E73846FAE7C6E9004CF8E7C7F1200CED
:1003A400BB4022FA0CF41C432EFA0CF120FA0CF395
:1003B400B84001434FEA14490EFA07F5B3FBF9F8C4
:1003C4001FFA84FE09FB18300B0C08FB0EFA43EAF3
:1003D40000439A4502FA07F240D9E31808F1FF30C6
:1003E40004D29A4502D9A8F102002344A3EB0A03DC
:1003F40089B2B3FBF9F809FB183308FB0EFE41EA96
:1004040003418E452CD9611808F1FF3304D28E457F
:1004140002D9A8F10203214443EA0040A0FB029858
:10042400A1EB0E014145CE46434602D306D14D45CC
:1004340004D2B9EB020E68EB04030138002EA6D0F7
:10044400B5EB0E0261EB030101FA0CFC22FA07F38F
:100454004CEA0303F940C6E9003198E74046C5E792
:100464004346D9E713B50F480469836801A95B685B
:10047400984720B9236801985840C0F340300028B9
:100484000BDD094B09481A680E2A96BF1A68002228
:1004940001321A60196802F0B9F9054B00221A708A
:1004A40002B010BD00390008740200205A3E000852
:1004B400B003002007B5094B1A785AB901221A7003
:1004C40000220023CDE9002305484FF4FA720023EB
:1004D40002F05CF903B05DF804FB00BFB003002038
:1004E4008000002008B54FF4D01102F01EFC002853
:1004F40004DA034802F09CF9002008BD0120FCE75F
:10050400733E000810B500F001010446114802F0E2
:100514002BFC04F00201104802F026FC04F0040154
:100524000E4802F021FC04F008010D4802F01CFC06
:1005340004F010010B4802F017FC04F020010A48F3
:1005440002F012FC04F040010848BDE8104002F03B
:100554000BBC00BF443C00083C3C0008343C000891
:100564002C3C0008243C00081C3C0008143C0008F7
:1005740070B5324C204602F0C8FF28B921683048D3
:1005840002F071FC002070BD4FF480312D4802F060
:10059400CCFB014628B122682B480D2302F063FCF2
:1005A400F0E7A5682369AE699EB11B6813F4005F88
:1005B4004FF00D0114BF4FF000734FF080634FF004
:1005C400A0722046B047014630B122681F480D236F
:1005D400E4E76FF05701F8E71D48FFF783FF1D4874
:1005E400FFF780FF1C48FFF77DFF1C48FFF77AFFE9
:1005F4001B48FFF777FF1B48FFF774FF1A48FFF704
:1006040071FF1A491A4B4B604FF400538B60EB692E
:1006140013B101222046984716491748174D184C24
:10062400002203F05FF82B68E05CFFF76BFF00210A
:100634004FF4967001F036FEF5E700BF003900086C
:10064400843E00084C3C0008AA3E0008D33E000843
:10065400443C00083C3C0008343C00082C3C0008A6
:10066400243C00081C3C0008143C000868020020DC
:10067400B904000869040008800000207402002006
:1006840044000020014B1B68184700BF00000020F5
:10069400014B1860704700BF0000002030B585B0E2
:1006A40004460D4610220021684603F098F8022300
:1006B4008DF802302A46044B01932146684602F025
:1006C400D7F805B030BD00BF8906000880B50546DF
:1006D4000E461746984601F003FE034603F088F8D9
:1006E400DFF81890044649F800304246304639464F
:1006F400A84754F8090000F0D9F900BF0800000029
:10070400034A536823F0020353600020704700BF7C
:10071400002004E0074A136843F010031360064BFB
:10072400064A1A60064A536843F0010353600020E6
:10073400704700BF002002403800002000127A00F9
:10074400002004E0014B036000207047543C000883
:1007540008B5034B1B689847BDE8084000F026B86D
:100764000400002030BFFFF7FDBF00BF2DE9F041BA
:100774000B4EDFF8308006EB0807CC1B05463246EB
:100784000949204603F01DF8A01942460021083CFF
:1007940003F025F82C6707F10800BDE8F08100BFDD
:1007A40000000000040000000C3C0008074A9368A5
:1007B40093F90E10002907DB526993421FBF044AC4
:1007C400536843F080535360704700BF8003002098
:1007D40000ED00E070B5264B15469A6A12F0100F32
:1007E4009A6A14BF1124102412F0080F9A6A18BFD1
:1007F4001224920706460AD5586B9A6A140634D511
:1008040019B19A6A22F080029A62132401E06FF00F
:100814001500174B9A6A12F0010F9A6A18BF142434
:1008240012F0200F9A6A18BF1524D20602D49B6ACC
:100834009B070AD50E4B5B68190506D5314600F0B7
:1008440017FA10B180F309880224094B9A6A9206B8
:1008540042BF5A6A22F400525A629A6A42F0FF0274
:100864009A6200232B70204670BD6FF01500CCE710
:1008740000ED00E0134B9A6A12F0007F9A6A14BFED
:100884001E201D2012F0807F9A6A18BF1F2012F4C8
:10089400002F9A6A18BF212012F4802F9A6A18BF79
:1008A400222012F4003F9A6A18BF232012F4803FDA
:1008B4009A6A6FEA02426FEA12429A6218BF2420CF
:1008C400704700BF00ED00E010B5194B0246986A6E
:1008D4009C6A10F4805F14BF1720162014F4006F74
:1008E4009C6A18BF1820A40509D5986B986A00045F
:1008F40004D51AB19A6A22F400429A6219200C4B68
:100904009A6A12F4806F9A6A18BF1A20D2050CD41E
:100914009B6A13F4005F18BF1C20054A936A43F4D2
:100924007F43936200230B7010BD1B20F5E700BFCB
:1009340000ED00E0F0B5484B5B688BB00446C3F3B0
:100944000803002585F31188BFF36F8F02F07F4001
:10095400B0F17F4F11D102F00C0008280DD0100720
:100964004CBF0C4601250022033B8DF80720032BC6
:1009740005D8DFE803F0246367602C46F3E700231F
:100984009DF80720CAB902AE04F120072068616807
:10099400324603C20834BC421646F7D1099A002DE8
:1009A40054D0C2F3080121B96FEA52226FEA4222FD
:1009B400099202A9184602F064FA0BB0F0BD264B66
:1009C400DA6A9107DBD4DA6A002AD8DBDA6A5200E1
:1009D400D5D55A69A16942F480725A61BFF34F8F29
:1009E400BFF36F8F5A6931F8021C22F480725A6186
:1009F400BFF34F8FBFF36F8F4DF6027291420AD04F
:100A04009A6AD2B24AB10DF1070201212046FFF7DA
:100A1400E1FE0346B4E72368B2E79A6A12F47F4F13
:100A240005D00DF107010120FFF74EFFF1E79B6AA6
:100A3400B3F5803FA3D3FFF71DFFEAE70DF10702EB
:100A44000021E3E70DF107010020EDE722F4FF7236
:100A540022F00102ACE700BF00ED00E0024A536956
:100A640043F010035361704700ED00E0EFF308809A
:100A7400EFF3098101B57246FFF75CFF01BD00BFCA
:100A8400102080F3118808484FF40461401880F363
:100A94000988EFF314800221084380F31488BFF31C
:100AA4006F8F00F0A5F80000C0030020084B9B687E
:100AB40083420BD1EFF3058343B1064B5A6842F0EE
:100AC40080525A605A6A22F400425A6202F0CDBD42
:100AD4008003002000ED00E0094A93686FF00A01EA
:100AE4009967084958674B6843F080534B6000236B
:100AF40083F31188BFF36F8F9368986F704700BFBB
:100B04008003002000ED00E010B50446EFF31183EC
:100B1400102383F31288BFF36F8F0A4B58699860D0
:100B2400094B4FF000625A60084B026F1A600022B2
:100B3400436F426783F31188BFF36F8F00F000F9AE
:100B4400204610BD8003002000ED00E07802002064
:100B54000B498A684FF030001044EFF3098C80E8A9
:100B6400F01F74467046FFF7CFFFA64604498A6813
:100B740002F1300090E8F01F8CF309887047000000
:100B8400800300201EF0040F0CBFEFF30880EFF386
:100B94000980816911F8021C0229FFD001B502F015
:100BA40076F901BD40B2002807DB044A410901235C
:100BB40000F01F00834042F82130704700E100E05C
:100BC40040B20028A8BF00F1604001F10101B8BFA4
:100BD400064B4FEA0111ACBF00F5614000F00F0075
:100BE400C9B2B4BF195480F80013704714ED00E083
:100BF4000F4A08B50F4B22F07F029A60BFF34F8F64
:100C0400BFF36F8FD3F8882022F47002C3F88820D2
:100C1400EFF3148323F0040383F31488BFF36F8F7B
:100C240001F030F801F0E8FB00F060F801F06EF834
:100C34000000000800ED00E042F8203C009B42F870
:100C44001C3C0A49019B42F8183C029B42F8143CA4
:100C540021F001014FF0807342F8043C42F8081C73
:100C64000023203A02654367704700BFD10600089D
:100C7400094A0346906870B113F1160F006E05D04F
:100C8400A0F140029A4205D8834203D2814228BF90
:100C940000207047002070478003002008B51546E7
:100CA4000B4A0C4B9060026F1A600E4600F048F835
:100CB4002C4686F309884FF00000074B98472046DE
:100CC4004FF000014FF000024FF00003034C2047A7
:100CD4008003002078020020A32E0008D10600081B
:100CE400014B10221A61704700ED00E00448002314
:100CF4001021C2180133552B82F80013F9D1704723
:100D040000E100E008B5EFF30583064A103B02EB6F
:100D1400C30152F8330049688847BDE80840FFF72B
:100D240045BD00BF64390008024B034A0348012152
:100D340000F076B80000012000000020543C0008B8
:100D4400026E054B403A1A60044A4021C3E901127D
:100D54001846012100F06EB87C02002000000B153B
:100D6400084AC2F898000B6823F01F03034343F0BA
:100D74001003C2F89C308B6843F00103C2F8A03022
:100D8400704700BF00ED00E02DE9F043DFF860801C
:100D940085B00E461F4604464FF00009B14523DADC
:100DA4006068D8B13FB1411E08421BD11F2819D930
:100DB4002368194216D12368019302F084F8A368CA
:100DC40003430393D8F89050C5F30725D0B2013DEF
:100DD400A84207D801A9FFF7C3FF421C09F1010982
:100DE4000C34DBE76FF01502104605B0BDE8F08364
:100DF40000ED00E0044B0522C3F89420BFF34F8FAD
:100E0400BFF36F8F704700BF00ED00E0BFF35F8F4B
:100E1400024B0022C3F89420704700BF00ED00E0AD
:100E240010B5034C01232278FFF7AEFF207010BDEC
:100E3400B103002008B50B4A00231278FFF7A4FF82
:100E440010F1160F07D0084A0021D2F89030C3F3EE
:100E54000723984200DB08BDC2F89800C2F8A0102E
:100E64000130F2E7B103002000ED00E02DE9F0438A
:100E7400534B544CD3F890302568C3F307239D4259
:100E840085B000F29A80FFF7C1FF00200C2685424E
:100E94001AD14D4C4D4F25706846FFF753FCDFF8CF
:100EA4002081DFF82C9106460025AE4213D1237829
:100EB40043490020D1F89020C2F30722934276DB05
:100EC400FFF798FF002042E0616806FB0011FFF77E
:100ED40047FF0130DBE7009800EB05114FEA051CE2
:100EE400CB683B40B3F5000F48D00AD8B3F5001FD8
:100EF40030D0B3F5800F36D0B3F5801F10D0013554
:100F0400D3E7B3F1807F42D0B3F1007FF7D150F83B
:100F14000C3088684A6801F0D6FF40F4802009E06C
:100F240050F80C3088684A6801F0CDFF40F08850D2
:100F340040F43020CDE901230390D8F89030207894
:100F4400C3F30723013B98422AD96FF0150005B07B
:100F5400BDE8F08350F80C3088684A6801F0B3FFAC
:100F640040EA0900E6E750F80C3088684A6801F066
:100F7400AAFF40F0E06040F40030DBE750F80C30AA
:100F840088684A6801F09FFF40F08270D2E750F809
:100F94000C3088684A6801F096FF40F08870C9E711
:100FA40001A9FFF7DDFE237801332370A7E7C1F819
:100FB4009830C1F8A00001337CE74FF0FF30C6E75A
:100FC40000ED00E0603C0008B10300200000F0FFE9
:100FD4000000081108B5024B1B689847002008BDA3
:100FE40088020020034B044A1860937843F00203FC
:100FF40093707047880200200800002008B5064955
:10100400064821F00701C1F1005202F5803201F0D7
:10101400EBFE002008BD00BFC71100208C02002099
:101024002DE9F0410F4E104F054600244FF0010802
:101034002B7853FA84F01F280DDC726908FA00F348
:1010440033EA020207D1736157F830301BB107EB62
:10105400C002516898476A780134E3B29A42E7D2F1
:10106400BDE8F0810004014098020020044B1844BC
:1010740000230133994200F8012BFADC704700BFCA
:101084005400002010B4064B064902460C6818565A
:101094000123934023430B6010BCFFF783BD00BFC3
:1010A40054000020000401401F2806DC03490122EB
:1010B4000B68824023EA02030B607047000401407E
:1010C40003292AD8DFE801F0020E141F134B012272
:1010D4009968824021EA02019960D96821EA0202F2
:1010E400DA6070470D4B0122996882401143F3E79F
:1010F4000A4B0122D96882401143D960996821EAD8
:1011040002029A607047012303FA00F0034B9A68C5
:1011140002439A60DA681043D860704700040140C3
:1011240030B50A4B53F830408C4204D103EBC00570
:101134006D68954205D034B943F8301003EBC00311
:101144005A60002030BD6FF00F00FBE798020020CA
:10115400034B002243F8302003EBC0035A6070476E
:101164009802002010B5164B18680B68052B14461E
:1011740010D0062B08D86BB1013B052B0AD8DFE849
:1011840003F00D0C180C0912182B07D01C2B08D0D7
:10119400142B03D06FF0850002E0002020600020B3
:1011A40010BD4008FAE700F0A1F828B100F09EF85D
:1011B400F4E749F64040F1E76FF00400F0E700BFC0
:1011C40038000020F8B53E4F3E4C00F09FF83846FA
:1011D40001F04CFF00F084FC63683B4AC3F3031343
:1011E4001578D35C47FA05F520FA03F6AE4202D22D
:1011F400284600F091FC236843F48023236023688D
:1012040043F48033236023689B03FCD5636A43F073
:1012140001036362636A9807FCD5636803F00C03F7
:10122400082B15D12368990706D4236843F00103DA
:10123400236023689A07FCD5636823F00303636083
:10124400636813F00C0FFBD1636823F0F003636051
:10125400236823F08073236000F03AF8236843F096
:101264008073236023689B01FCD5636823F0F0033B
:101274006360636823F0030343F0020363606368FD
:1012840003F00C03082BFAD1AE4202D3284600F037
:1012940043FC0E4B1F60636823F4E06343F48063F4
:1012A4006360636823F460536360E36A23F4F87350
:1012B400E362E36A23F47853E3620020F8BD00BFDD
:1012C40000A24A0400100240D63F00083800002063
:1012D400054A536823F4761343F4E8135360D36A3E
:1012E40023F00F03D3627047001002404FF4E01361
:1012F4004FF4701292FAA2F2B2FA82F2D340024888
:1013040002335843704700BF00127A00064BDA6973
:1013140042F08052DA61DB6982B003F080530193BA
:10132400019B02B0704700BF0010024008B5074897
:1013340002F0EBF838B10648FFF754FE0448FFF713
:10134400A7F9002008BD6FF01200FBE73C39000844
:10135400591300080A2838B5074D044604D1AB6870
:101364000D215B6828469847AB6803485B68E1B287
:101374009847204638BD00BF3C39000838B503699A
:1013840004465860084D284602F0BFF840B1616831
:10139400AB680C311B682846984700EAE07038BDFA
:1013A4006FF01200FBE700BF88380008F7B50C4661
:1013B4001146B1F5001F476802691D4625D104F0A6
:1013C4000302043292000F23934043EA940303F090
:1013D40003023549023251F82220190C02EA134360
:1013E40091FAA1F2B2FA82F2D340BA689A4209D1D0
:1013F4002046FFF759FE2046FFF7AAFE00212046AB
:10140400FFF75EFE002003B0F0BDB1F5800F42D0BF
:1014140026492046FFF784FE00283FD1B5F1806FAE
:1014240035D0B5F1C06F34D0B5F1007F39D1022683
:101434001F4ABD6892E803006B4683E803001D4819
:101444008268194612689047C8B904F0030304334C
:101454009B000F229A4042EA940202F003039B008D
:1014640003F1804303F58033110C986820EA12409D
:1014740091FAA1F2B2FA82F2954005439D602046AA
:101484003146FFF71DFE2046FFF7FCFDBAE70126B3
:10149400CEE70326CCE76FF08500B4E76FF00F00CA
:1014A400B1E76FF01500AEE7000001407D3200089F
:1014B4000C3C0008883800082DE9F0471E4F04460C
:1014C40000EBC1060025B44201D1002014E02068DD
:1014D400C30600F01F0911D4656845F02005C0F368
:1014E400481AC0F344200F2823D857F82080B8F1B5
:1014F400000F0DD16FF01200BDE8F087B9F1100FA5
:1015040004D0B9F1110FEAD16568E8E73025E6E7C0
:10151400404601F0FAFF0028ECD04B462A460AF078
:101524000F01404601F0BFFE002804F10804CADAA6
:10153400E2E76FF01500DFE73C3D0008F8B503690A
:101544000C465D6823794168012B16D09F1E7E42AC
:101554007E41B6026279022A9CBF454F37F8127069
:10156400A27988BF4FF40057022A09D0042A2FD049
:10157400003B18BF01231B0306E04FF4C066E9E7F4
:10158400B3FA83F35B091B07E2790968012A14BFE4
:101594004FF0000C4FF4407CA5421CD10A6822F0A5
:1015A400805222F4B05232431A430A604B6823F447
:1015B40040533B434B6043681A68936823F4407379
:1015C40043EA0C0393602968BDE8F84001F0CBBE00
:1015D4004FF48053D8E7D1F800E00EF4C06E76459E
:1015E4001FBFD1F800E02EF4C06E4EEA06060E606E
:1015F40041680E68716801F440518F421FBF7168E1
:1016040021F440513943716041680E68316801F03A
:1016140010218B421FBF316821F010210B4333602E
:10162400436819688B6803F440739C451FBF8B683B
:1016340023F4407343EA0C038B6043681B68996886
:10164400490405D5032A09D09A6822F4804204E0AB
:10165400032A03D19A6842F480429A6021682B6875
:10166400994203D001F07FFE23682B60F8BD00BFD0
:10167400543E0008F7B505694468064646482860A4
:1016840001F043FF00287FD02868E16883681B6865
:10169400984700287ADB206A01AA002101F018FE8D
:1016A400002873DB019B002219791868FFF704FFF7
:1016B40000286BDB756833692C685F68236823F046
:1016C40001032360686801F020FF00285CD0D5E99D
:1016D40001018368DB6803B1984754E8003F43F095
:1016E4000C0344E80032002AF7D139463046FFF7AC
:1016F40025FF2B7D1BB1A36843F00803A3606B7D1A
:101704001BB1636843F400436360AB7D1BB1636842
:1017140043F480336360EB7D1BB1636843F40033AF
:1017240063602B7E23B31D4B9C4207D0A3F5744307
:101734009C4203D003F580639C4229D173681A68E4
:10174400936843F48043936023686A7E23F078733C
:1017540043EA425323602368AA7E23F4F81343EA3E
:1017640002432360EB7E1BB1A36843F40043A360F0
:10177400236843F001032360E3699A02FCD5E3691B
:101784005B02FCD5002001E06FF0120003B0F0BD55
:101794006FF01500FAE700BF8838000800380140F0
:1017A400F8B5436891F805E01C68036902460879B6
:1017B4005D688B7901280E461CD1BEF1020F5CD9FD
:1017C400022B1F464FF4C0614FF4005C6DD0042B14
:1017D40066D020B1C31E012B64D94FF48050BCF5F0
:1017E400805F6CD0BCF5405F6BD0BCF1000F1CD1A6
:1017F40001231BE002280AD1BEF1020F49D9022BB2
:101804001F464FF480610BD04FF4005CDFE7BEF15C
:10181400020F41D9022B1F4640D100284BD0002192
:10182400C31E012B3ED9002002270323734539D15F
:1018340001F0B4FDB84235D1F37963B1012B42D143
:10184400224B9C4207D0A3F574439C4203D003F57A
:1018540080639C4226D1236823F001032360314630
:101864001046FFF76BFE236843F00103236096E8FC
:10187400030085E803000020F8BD4FF4C061144F55
:10188400022B37F81EC01F46A1D170B94FF080500B
:10189400A5E74FF48061F2E70021F0E70021B3E708
:1018A40000289AD06FF08500E6E7C31E012BF9D912
:1018B4000227002093E701464FF08050B5E700234C
:1018C400B4E70223B2E7032BBAD0EBE700380140B8
:1018D400543E000810B54FF0E0230F499C691A6983
:1018E40008689B690D4902F4803234B993B9034600
:1018F4004AB90A681044C01A10BD002B08BF034639
:101904000AB9A342F5D90A6802440A604FF0E022FA
:101914001269EEE70446F3E77C0300207803002015
:101924000A4B102283F82320094B4FF4E1521A602A
:10193400084B002018604FF0E02341F61F425A6123
:1019440098611A6942F007021A61704700ED00E0DD
:101954007C0300207803002010B5FFF7BBFF104B79
:101964001049D3E900420868001942F10002C3E9B2
:1019740000020D4A00230B60D2E900414FF4E15309
:10198400001BB0FBF3F043431B1941F10001C2E912
:10199400003100F00BFEBDE81040FEF707BF00BFAA
:1019A400C000002078030020B80000202DE9F04199
:1019B400DFF8DC8099B1421C0BD14FF0E0221369AF
:1019C40023F0010313614FF07F43C8F80030BDE8F2
:1019D400F081D8F80060012807DC00270BE0431CE5
:1019E400D8F80060F7D140F6191040F61A1398425F
:1019F400A8BF1846471EEFF31185102383F31288FE
:101A0400BFF36F8FFFF766FF224C4FF0E023996915
:101A1400D4E90023801843F10003C4E900031E4BFA
:101A240000221A601D4B1A68831A2ED44FF4E15C0D
:101A34000CFB073303F5E0531F33B3FBFCF7131A16
:101A44000CFB0733B3F5806F154A38BF4FF480633E
:101A5400934228BF13464FF0E022C8F80030013B00
:101A640090695361002393618142A1EB0003D4E99F
:101A7400001238BF9B195B1842F10002C4E900321E
:101A840085F31188BFF36F8FA1E74FF48063E2E71A
:101A94007C030020C000002078030020B800002050
:101AA40020DFFF0038B5EFF31185102383F312888C
:101AB400BFF36F8F084B1C68084B1B68E41AFFF7D1
:101AC40009FF85F31188BFF36F8F4FF4E15320446E
:101AD400B0FBF3F038BD00BFC0000020B800002008
:101AE400094A0A48536803F00C0108290BD1D26A49
:101AF400074902F00F02C3F383438A5CB0FBF2F0A0
:101B0400044AD35C584370470010024000127A0024
:101B1400E63F0008F63F0008D8B10F4B984216D8AC
:101B24000E4B984294BF002001200D4A136823F005
:101B3400070303431360136803F0070398421CBFB1
:101B4400136803F00703C01A18BF0120704702206E
:101B5400EBE70120704700BF006CDC0200366E0129
:101B64000020024038B5EFF31185102383F3128867
:101B7400BFF36F8F064B9C6801F0DAFC85F3118884
:101B8400BFF36F8F2046BDE83840FEF78FBF00BF1C
:101B94008003002038B5094B53F82040013053F836
:101BA4002050A54200D838BD636823B1204601F017
:101BB400C2FC0834F5E723689847FAE73C3E00087E
:101BC40070B52B4B2B4C2C4D012286B003201A7080
:101BD400FFF7E0FF00F014FE01F0C9FC0420FFF75A
:101BE400D9FF2646AE4204F1300410D300F09CFA2B
:101BF400204C224EAC4226D300F0AAFAFEF7B8FCE1
:101C04001F4A137B23F00103137306B070BD54F80D
:101C14000C3C059354F8103C049354F8143C03937F
:101C240054F8183C029354F81C3C019354F8203C9B
:101C3400009354E90A2354E90C0100F0D3F854F852
:101C4400303C5E65CDE7D4E90A23B3F1FF3F08BF1A
:101C5400B2F1FF3F05D052EA0301206803D101F03D
:101C640092FC3034C6E73146183000F025FCF8E722
:101C7400B20300200C3C00080C3C00086736000846
:101C84004801002008B50348034A0021121A01F054
:101C94006AFC08BD80000020B403002070B5002356
:101CA40086B00122CDE90423134E144D01930F2273
:101CB400CDE902321249142303FB005506EBC0168A
:101CC40004464FF4C07000FB04110E4B00954FF412
:101CD400A072304600F086F8737B0B4AEE6023F066
:101CE400040373734FF4046304FB033313442C742D
:101CF4006B6006B070BD00BFC800002080030020E8
:101D0400000C002075350008C0030020BFB500207A
:101D1400FFF740FF2B4B83F308882B4D2B4E6B6949
:101D24002B4F43F400736B610024F02385F82230B9
:101D3400EC772C766C76AC7685F820406B6A43F4AD
:101D4400E0236B62FEF78AFEFEF7CAFF4FF0FF3313
:101D5400AB62EB62FFF78AF8FEF7E6FF1D4BB36058
:101D640040F201129A81C3E91844DC6601F0CCFB0D
:101D74000120FFF70FFF0220174DFFF70BFF00F0C4
:101D840007FA164B75610593012315490094CDE9B3
:101D940003434FF480623B46CDE90144284600F0FA
:101DA40021F86A7B064622F0040228466A7301F091
:101DB400FEFB2046FFF772FF3A4631462846FEF7FF
:101DC4006DFF00BF000C002000ED00E08003002048
:101DD400C51B0008C8010020480100200640000877
:101DE400800D00202DE9F043073285B022F0070270
:101DF4000E461F461099017300F158037F32C0E963
:101E040016330446002322F03F0204218360417309
:101E14003F2A0F98A073C4E90633E37306F140091F
:101E2400A2F1400805D883F31188BFF36F8F0846E9
:101E340002DFB51829462046FEF798FC07300E9BB2
:101E440020F00700A066C4E9189802930D9B019343
:101E54002D1A0C9B00932A463B4631462046FEF73A
:101E6400EBFE00236365044B9B6803B1DB6EE36602
:101E7400284605B0BDE8F0838003002038B50D4D39
:101E84002B4653F8184F9C4200D004B9EC68AB6859
:101E940038B95A7BD20604D1A26912B9DA897F2AE9
:101EA40005D89C4202D0204600F04EFA23466B61CE
:101EB40038BD00BF8003002008B590F90D20437B96
:101EC400002A014604DA03F07F03437301F05DFB4B
:101ED400044B9868431A58425841BDE80840FFF73C
:101EE400CDBF00BF8003002070B490F90D30427B59
:101EF400002B29DBD30627D183692BBB134962F05E
:101F04007F0242730A4652F8184F944218BF234680
:101F1400CC6923B9C0E900242060C8610CE090F9C1
:101F24000E5093F90E60B5420AD0AE4208DD5A68ED
:101F3400C0E900321060586070BC0020FFF79EBFFB
:101F44009C42E7D01B68E4E770BC70478003002024
:101F54002DE9F041002A427B0E460CBF10210821D6
:101F6400114204460FD141EA0203D20918D1437346
:101F740008291BD00120FFF781FFBFF35F8F637B2C
:101F840023F060036373274B9B68A34243D1EFF3B1
:101F94000583002B3FD13046BDE8F041FEF79CBDE0
:101FA40003F07F03437301F0F0FAE1E7A36813B190
:101FB400204601F0F2FA04F1180001F078FBA56D57
:101FC40004F15807AF4211D04FF0000875B128460C
:101FD40001F0E3FA05F1180001F069FBC5F8788017
:101FE4002846FFF781FFA56DAF42EFD10D4DAB68D9
:101FF4009C42BFD1EFF30583002BBBD00120FFF738
:102004003DFF094BAB6040F201129A810022C3E903
:102014001822DA66B1E786F31188BFF36F8FBDE843
:10202400F08100BF80030020C801002070B590F942
:102034000D20437B002A014604DA03F07F03437337
:1020440001F0A3FA4B7B154A63F07F0310464B73F0
:1020540050F8183FD469834208BF002323B9C1E96B
:1020640000042160D1610CE091F90E5093F90E60E7
:10207400B5420ED0AE420CDD5868C1E900300160B3
:1020840059609068431A5842BDE870405841FFF7C0
:10209400F5BE9C42E3D01B68E0E700BF800300204C
:1020A40049B9EFF3058030B9054B5A699B689A42E8
:1020B40001D0FEF711BD81F31188BFF36F8F704714
:1020C4008003002010B5EFF31184102282F31288EC
:1020D400BFF36F8F427B510704D484F31188BFF39D
:1020E4006F8F10BD22F004024273FFF7FDFE2146FC
:1020F4000248BDE81040FFF7D3BF00BFB303002080
:10210400034648B9EFF3058232B9064A5169926829
:10211400914201D0FEF7E0BC83F31188BFF36F8FC7
:10212400704700BF80030020EFF31181102383F375
:102134001288BFF36F8F054B9A68D37B013BD3732F
:1021440081F31188BFF36F8F704700BF80030020B5
:1021540038B5EFF31185102484F31288BFF36F8F21
:102164000A4B9A68D37B0133D3730020FFF786FEB2
:1021740085F31188BFF36F8FEFF3118084F3128816
:10218400BFF36F8FBDE83840FFF7BABF800300206C
:10219400024B03F11802C3E90622704780030020B2
:1021A400F8B5EFF31185102383F31288BFF36F8F13
:1021B40019498868437B03F07F03437301F0E5F911
:1021C4008B685A7B084662F07F025A7350F8182FC6
:1021D400CC69824208BF002222B9C3E9000423600B
:1021E400CB610CE093F90E6092F90E70BE420ED0F2
:1021F400B7420CDD5168C3E900210B605360012034
:10220400FFF73CFE2846BDE8F840FEF765BCA24255
:10221400E3D01268E0E700BF8003002050EA010326
:102224002DE9F04105460E4603D1FFF7B9FF002022
:102234002BE0831C71F1FF3329DB01F04DFA2C18DC
:10224400EFF31188102383F31288BFF36F8F124FBB
:10225400124BB8681860FFF72FFEB86810492A4679
:102264003346183000F028F9BA68537B43F0100362
:1022740053734046FEF730FC01F02EFA201A63EB4C
:102284000303012873F10003D1DBBDE8F0816FF093
:102294000104241AD4E700BF80030020A003002017
:1022A40067360008B1F1FF3F08BFB0F1FF3F08B542
:1022B40006D10A4B986801F089F94FF0FF3008BD48
:1022C400FFF7ACFFC11709304FF00A024FF00003CB
:1022D40041F10001FDF75CFFF1E700BF800300203E
:1022E400014B9868704700BF80030020044BC01A5C
:1022F400044BC0105843044B01221A54704700BFCA
:1023040048020020ABAAAAAAB3030020C3897F2BEA
:1023140012D80A4B1B6863B1094B90F90E201B6855
:102324009A4209DB437BDB0606D1064BC31A18BF6E
:10233400012303F0010070470023FAE7A8030020FB
:10234400A4030020C800002070B50E4B0E4C1E7C68
:1023540006EB460304EBC3040546204601F0A7F947
:102364000A4B002228469A55FFF7D0FF48B1084B84
:1023740008491A68013A2046D317BDE8704000F0B6
:102384009BB870BD8003002048020020B3030020E6
:10239400A8030020F122000838B5EFF311851023BB
:1023A40083F31288BFF36F8F104B114A9C68106837
:1023B400A04206D1FFF7C8FF85F31188BFF36F8FE2
:1023C40038BD00211B7C11600A4AD35C002BF3D07A
:1023D4002046FFF79BFF0028EED0637BDB0602D18B
:1023E4002046FFF723FE2046E4E700BF80030020D9
:1023F400A0030020B303002008B50648064A074995
:10240400121A01F0B2F8BDE80840054A0549064829
:1024140001F0ABB8000000207A000020584000080A
:10242400000000005840000800000020034B1B6817
:102434000BB9FFF737BB0020704700BFAC03002087
:1024440030B570B10B4B5B6898420AD0036843B156
:10245400D3E90421D0E90445121941EB0501C3E98C
:102464000421D0E9003213605A600023C0E900332C
:1024740030BD00BF3C00002010B50E4B1C689C42D0
:1024840004D1FFF7D3FF6FF0004010BDFFF7CEFF7C
:10249400002CF8D0D4E904321B1A62EBE072B3F1D9
:1024A400004F72F10001EEDA002AACBF184600209A
:1024B400EBE700BF3C000020B3F1FF3F08BFB2F1DF
:1024C400FF3FF8B504461D4616465ED08160EFF323
:1024D4001187102383F31288BFF36F8F013275F1D4
:1024E400FF3324DA2E49D1E900206FF001039B1A4F
:1024F4004FF0FF3262EB00009E1B60EB0500012EE3
:1025040070F1000301DA01260020C4E90460254EBD
:10251400D6F800C07568B44508BF4FF0000CBCF194
:10252400000F0DD1C4E900652C6074601CE0FFF756
:102534007DFF013645F10005361845EBE070E4E710
:10254400DCE90420D4E90431934271EB000E1DDA76
:10255400D21ADCF8043060EB0100CCE90420C4E9B1
:1025640000C31C60CCF804403368B34209D09C42D9
:1025740007D10D4B1C6824B9FFF77EFF2146FFF7F6
:1025840015FA87F31188BFF36F8FF8BD9B1A61EBBF
:102594000001AC45C4E90431C4D0DCF800C0BEE796
:1025A400600200203C000020AC0300202DE9F84F1D
:1025B400EFF3118C102383F31288BFF36F8FDFF8CE
:1025C400B0A0DFF8B0902C4FC9F80000DAF8000092
:1025D4000024504508BF00200025D7E90021D9F880
:1025E4000030E04678B3D0E9046C4FEAE37EB342AE
:1025F4007EEB0C0B05DAF61A6CEB0E04C0E90464EE
:1026040021E0B21841EBE671C0E90445C7E90021B5
:10261400FFF716FF88F31188BFF36F8F836898471D
:10262400EFF31188102383F31288BFF36F8FD9F867
:102634000030DAF800009B1B5045C446C9F800304E
:10264400CBD1D7E900219A1841EBE3730024C7E901
:102654000023C9F80040FFF70FFF2146FFF7A6F952
:1026640088F31188BFF36F8FBDE8F84FFFF794BE6E
:102674003C000020AC0300206002002010B5EFF302
:102684001184102383F31288BFF36F8FFFF7CEFEFC
:10269400054A0346D2E90001181841EBE37184F3BB
:1026A4001188BFF36F8F10BD60020020F8B5044697
:1026B400EFF31187102383F31288BFF36F8F02683F
:1026C40022B187F31188BFF36F8FF8BDD0E90A36C2
:1026D400581C46F10001022871F1000127D3012B97
:1026E40076F10001BCBF012316465D1E46F1FF369C
:1026F40000F0F6FF013041F10001401946EB010101
:10270400012871F1000139DB00F0EAFF013041F1E9
:1027140000016FF00102401946EB0103121A4FF059
:10272400FF3161EB030318492046FFF7C5FE236B15
:1027340001332363236A6BB187F31188BFF36F8F6F
:10274400236A20469847EFF31187102383F31288F6
:10275400BFF36F8F54F8185FA542B2D0002DB0D0EC
:10276400284600F04CFF0023AB6787F31188BFF3C2
:102774006F8F2846BDE8F84000F019BF6FF00102E2
:102784004FF0FF33CFE700BFB12600082DE9F04139
:1027940005461C4690461F46EFF31186102383F32B
:1027A4001288BFF36F8FB4F1FF3F08BFB2F1FF3F50
:1027B40005D186F31188BFF36F8FBDE8F081531CF8
:1027C40074F1FF3309DB012A74F10003BCBF012259
:1027D400002412F1FF3844F1FF37284600F067FF68
:1027E400DDE906010023C5E90A012B6303494246DA
:1027F4003B462846FFF760FEDBE700BFB126000832
:10280400014800F030BB00BF0B4000080FB407B50F
:10281400064B04AA186852F8041B019200F028F829
:1028240003B05DF804EB04B0704700BF803C0008BF
:10283400F8B50E4B1D68AB789B07064612D56F683A
:1028440016F8014B29462CB90A20B847002805DBA5
:10285400204609E02046B8470028F1DAAB7843F077
:102864000403AB704FF0FF30F8BD00BF803C00089C
:102874002DE9F04F8DB043680293837815469A078B
:10288400804640F10D8100240E78002E00F00A816C
:10289400252E0BD04B1C03930134029B414630463A
:1028A40098470028C0F2F6800399EDE74E788B1C18
:1028B400252E0393F0D00027B946BB46BBF11F0F6A
:1028C40038D8A6F12003102B0AD8DFE803F02A0930
:1028D40009300909092109090928092D09091F00D5
:1028E400A6F13003092B33D92A2E37D11BF0400F20
:1028F40055F8043B40F08280002BA7BF4BF0200B1F
:102904009946C3F100094BF0280B01E04BF0010B91
:10291400039B13F8016B0393002ECFD130E04BF0EF
:10292400020B4BF0040BF3E74BF0080BF0E74BF012
:10293400100BEDE7BBF17F0F19D8A6F13003092B7B
:10294400D2D81BF0400F03D00A2101FB0737DFE781
:102954000A2101FB09394BF0200BD9E72E2E06D1B1
:102964001BF0400F40F09E804BF0400BD0E76C2EE4
:1029740031D02BD8682E36D06A2E3CD04C2E3AD08B
:10298400002F46F02003B8BF2BF04002A3F16501ED
:10299400BCBF1FFA82FB0027022901D9612B2FD16A
:1029A400073525F00705DFF8ACA2083507271BF02B
:1029B400080F66D00AEB070B56465E4563D1A4EBBD
:1029C4000A0A06EB0A02A9EB07096FE1742E9FD0ED
:1029D4007A2E9DD0D4E71BF0800F18BF4BF4007BF8
:1029E4004BF0800B94E71BF4807F18BF4BF4007B03
:1029F4004BF4807B8CE74BF4207B89E71F4687E709
:102A0400A6F16301122900F2F080DFE811F013004F
:102A14004F00EE00EE00EE00EE004F00EE00EE0080
:102A2400EE00EE00EE00FE00E900EE00EE001B00FA
:102A3400EE00AF0055F8043B8DF8183001270DF176
:102A4400180AB4E755F804AB834BBAF1000F08BF7A
:102A54009A461BF0400F14BF39464FF0FF315046E1
:102A640000F04CFE0746A2E7029B4146202098470F
:102A740000280FDB013EB742F6D34C44A41BB146F9
:102A840098E74E46F7E716F8010B029B4146984734
:102A9400002892DA98F8023043F0040388F80230F0
:102AA4004FF0FF3420460DB0BDE8F08F1BF0800FCF
:102AB40034D01BF4007F2CD0073525F00705AA4637
:102AC40069685AF8080B2BF010050029ADB237DA03
:102AD400404261EB410145F480650DF1180B0A2376
:102AE4005A4600F017FEA0EB0B0301936B0662D568
:102AF400019B25F001019F4289B240F3A180002E81
:102B040000F0998015F0100240F09C80BB460D4601
:102B140023E0AA465AF8040BC117D4E7AA461BF4CB
:102B2400807F5AF8041B01D10846F5E71BF4007FA7
:102B340015BF48B208B241F3C01141F3C031C2E736
:102B440050EA0103C9D11BF0400FC6D0002FC4D1F5
:102B54002BF0110295B2BB46019740F2064115EAEB
:102B640001021CBF0BF1010B00222CE02BF0100220
:102B74001FFA82FB0A231BF0800C49D01BF400715E
:102B84001DBF073525F00705AA46AA461ABF5AF8FD
:102B9400080B69685AF8040B50EA010545D12BF07B
:102BA40016051BF0400FADB242D0002F40D12BF0E0
:102BB400170295B2019715F0100248D0019B002E20
:102BC40042D103F1010B29075AD4EB0706D5D945A5
:102BD4006FDD0199A9EB0B035F18CB465B4649E017
:102BE4004BF0100B10237826C5E7782B04D1C6F1DF
:102BF400780343F01003BEE7029B41462520984723
:102C04000028FFF647AF023447E608230026B2E760
:102C1400AA461BF480715AF8040BBDD01BF4007152
:102C24001ABFC0B2614680B2B6E72BF0060295B275
:102C34000DF1180B54E725F01105ADB2BB468CE736
:102C44000D46B8E73B460D4603F1020BBBE7DDF842
:102C540004B082E74F40000848400008CDE9043240
:102C64004146029B202098470028FFF613AF049B9F
:102C7400059A01339945F1DCA4EB0B01CC189B4672
:102C84000AB3029B4146302098470028FFF602AF62
:102C94008EB901342744019B391B994224DC1D461B
:102CA4005DBB019AA9EB0B09224455461446914495
:102CB40035E0019F92E7023441463046029B984733
:102CC4000028E7DAE6E640F206410D42E2D015F0CC
:102CD400020F14BF2B20202015F4806F04F101048F
:102CE400414618BF2D20E9E7029B41463020984712
:102CF400002804F10104CEDACCE606AB013D4146DE
:102D0400585D029B98470028CADAC3E6029B4146F5
:102D140020209847002804F10104FFF6BBAEA9EB7C
:102D24000403002BF2DCBFE57047F0B403460A4607
:102D34001979DB8800681343DC028768066906D5C5
:102D440013F4402F03D0DA0748BF83F440233468D8
:102D540001258D4023F48012DB074CBF2C43AC4388
:102D640034603B68F0BC184703460A46006819798A
:102D7400012303FA01F103691B68194203D022B14C
:102D840083681B6903E0002AFAD08368DB6818476C
:102D940000EBC100408840087047F8B50346FFF7D0
:102DA400F7FFB0FA80F0C0F11F0003EB800CCA00FB
:102DB400DCF81060171D0C4606328DB256B901219D
:102DC40001FA00F0D9680143D960CCF81040DD5312
:102DD4009D52F8BDF1000431585AD85303EBC0009A
:102DE4009E52C5805D52F4E7043A2DE9F041CC1DB2
:102DF400114424F0070421F007010E1BF708B7FA69
:102E040087F2C2F12405AD004FF000080735C2F186
:102E14002002ED0804604146A760C4F80C809200CB
:102E240004F1100000F0DBFC6B0043F0010363804D
:102E340004EBC5027B1B5900A4F800805180A21941
:102E440024F83550A2F80280A35304EBC7032946A3
:102E54005A8842F001025A802046BDE8F041FFF74B
:102E64009CBF002070470FB407B504A951F8040BA8
:102E74000191FDF713FC03B05DF804EB04B0704757
:102E84007047012801D1EFF30583FEF76BBE0146BD
:102E94000068FFF7F6BF00210120FFF7F2BF61B61B
:102EA40062B680F31188BFF36F8F704772B6002348
:102EB40083F31188BFF36F8FBFF34F8F30BF62B6B8
:102EC400BFF36F8F7047202809D9B0F1004F08D89D
:102ED4000138B0FA80F0C0F11F00400070470820AC
:102EE40070473E20704708B5FEF774F8002008BD0F
:102EF40008B5062201210020FEF7B8F80022114689
:102F04000620FDF75DFE012108460722FEF7AEF814
:102F1400002211460720FDF753FE0822012102205A
:102F2400FEF7A4F8002211460820FDF749FE092205
:102F340001210320FEF79AF8002211460920FDF72B
:102F44003FFE0A2201210420FEF790F800221146D8
:102F54000A20FDF735FE052108461722FEF786F8FC
:102F6400002211461720FDF72BFE282206210A20F5
:102F7400FEF77CF8002211462820FDF721FE0020F0
:102F840008BD0B68A3F11402082A82B012D803F119
:102F9400804303F5043348681A6802431A600B68D7
:102FA40003F1804303F5043300201B680193019B64
:102FB40002B070476FF08500FAE70B68A3F11402C2
:102FC400082A9FBF03F1804303F5043349681A6854
:102FD4009DBF8A4300201A606FF08500704710B5CA
:102FE4000A68062A25D86A23D340DB0721D54A6814
:102FF400FF2A1CD0D3B203F1804303F50433C2F398
:1030040042341868C2F3042204FA02F220EA0202EB
:103014001A604968CBB203F1804303F50433C1F36A
:1030240002421868C1F304218A4002431A60002056
:1030340010BD6FF08500FBE70B68A3F11402082AAA
:103044000AD803F1804303F504331A684B689343A9
:1030540014BF012002207047062B9FBF6A20D8406E
:1030640000F00100013088BF0120704770474368B9
:103074005B681B690B600020704743685B68586994
:1030840042400A4042405A610020704743685B68EE
:1030940000209961704743685B680020996270471B
:1030A40043685A6853694B4053610020704710B518
:1030B40003699868F8B1884219D1DC680868986097
:1030C400A14200D1D860002008602AB19A680A6041
:1030D400DA68996002B9D960002010E0814206D113
:1030E40008682060D8688142EDD1DC60EBE70446D3
:1030F40000680028F2D1002AE8D16FF0150010BD55
:10310400F0B544680120676888401E46C2F3801306
:1031140027EA00078B403B43636090FAA0F7B7FAB5
:1031240087F7D4F808C04FF0030E7F000EFA07F7B4
:103134002CEA070C90FAA0F7B7FA87F7C2F3C11389
:103144007F00BB4043EA0C03A36090FAA0F3B3FAF8
:1031540083F3E7685B000EFA03F327EA030790FAA8
:10316400A0F3B3FA83F302F030055B00C2F341220B
:103174009A403A43202DE26016D107292BDC90FABD
:10318400A0F3226A2BB3B3FA83F39B000F2101FA55
:1031940003F322EA030290FAA0F3B3FA83F39B0049
:1031A40006FA03F31343236290FAA0F3B3FA83F30A
:1031B400226890FAA0F05B000321B0FA80F02D0998
:1031C40001FA03F3400022EA030385401D4325600E
:1031D400F0BD2B46D9E7030A616A93FAA3F282B1E0
:1031E400B2FA82F292000F2793FAA3F3B3FA83F3AD
:1031F40007FA02F29B0021EA02029E40164366622D
:10320400D2E72A46EEE713469A0310B518D59C0771
:103214000FD55A072DD55022DC060CD542F4007286
:1032240013F4002F446818D0646801238B40A36111
:103234000DE01022F0E79C06F2D542F48062EFE73D
:10324400DC0311D5DA0611D4C3F340139A024068A3
:103254000023FFF755FF002010BD5B03F7D564681A
:1032640001238B40A362F2E73022F0E74FF40072AF
:10327400EDE76FF08500EFE770B50B46896821B183
:1032840001255E680C68854001B970BD8A682A40D2
:1032940002D04B68304698471CB1236821461C462F
:1032A400F2E72346FAE7F8B51F46044640680E469F
:1032B4001546FFF725FF112F08D1012303FA06F65F
:1032C40063685B682A054CBF9E619E620020F8BD5E
:1032D40030B5036813600579046804EBC504A342A0
:1032E40002D36FF0010030BD5C798C4201D0083309
:1032F400F0E70020F7E74368C1F34B101B6801F0C7
:103304001F01C05801238B40034214BF0123002333
:1033140013700020704710B54368C1F34B101A684E
:1033240001F01F01845801238B4023438350002064
:1033340010BD10B54368C1F34B14186801F01F01A8
:10334400235801228A4023EA02032350002010BD9F
:1033540038B504460D46FFF7DEFF29462046FFF741
:10336400E8FF002038BD37B50269436810681D685E
:103374000C46D9688368DB6873B101AA98470028B2
:103384000ADB2B6823F400432B60019B03EB5403FB
:10339400B3FBF4F39BB2EB6003B030BDB0F5805FD8
:1033A40007D0B0F1805F09D1002914BF01200220A9
:1033B4007047002914BF032004207047002914BF5C
:1033C40002200320704743681B68D869DA69D10773
:1033D400DA69C0F3C00048BF40F002009207DA691E
:1033E40048BF40F004005107DA6948BF40F02000AC
:1033F400D20542BF4FF4807240F008001A62C10740
:1034040044BF08221A62820744BF01221A6241079C
:1034140044BF02221A62820644BF04221A62704721
:1034240010B543681B681020DA691206FCD5EFF367
:10343400118280F31288BFF36F8FDC69240604D4F1
:1034440082F31188BFF36F8FEEE7198582F3118839
:10345400BFF36F8F10BD43681B68DA69100744BF60
:1034640008221A62DA69920643BF9B8C0B70002013
:103474004FF0FF30704710B50269526812680A6055
:1034840042681268126802F4C062B2F5806F0446A2
:103494000B4633D0A2F5C060424242411A716268C1
:1034A4001268526802F44052B2F5805F28D0B2F537
:1034B400405F27D0002A0CBF012203225A716268A0
:1034C40012681068116800F0102001F4C061FFF761
:1034D40065FF987162681268926802F44072A2F5FE
:1034E40040714A424A41DA7161680968896811F495
:1034F400804F18BF0322DA71002010BD0222CDE7ED
:103504000022DBE70222D9E7704740B1C36858784C
:1035140010F001001EBF1878B0FA80F0400970471F
:10352400EFF31183102383F31288BFF36F8FFEE749
:1035340008B5FFF7F5FF10B5D0E9003433B9002022
:10354400E268537843F00103537010BD2046984756
:103554000028F4D00028B8BF4042E368FF28A8BF81
:10356400FF201870ECE700F03AB900F02AB9704770
:1035740008B51024EFF3118384F31288BFF36F8F1F
:10358400FFF794FCF6E7FEF79DBDD0E90032136027
:103594005A600023C0E90033704708B5FFF7F5FF10
:1035A400437B23F0020343730023836008BD10B5FB
:1035B400EFF31184102383F31288BFF36F8FFEF7A8
:1035C40093FC84F31188BFF36F8F10BD10B50446CC
:1035D400183000F06CF8EFF31181102383F3128894
:1035E400BFF36F8F627B1A4004D081F31188BFF35D
:1035F4006F8F10BD2046BDE81040FEF7A9BC08B58A
:10360400EFF31181102282F31288BFF36F8F836866
:103614000BB1FFF7C2FF81F31188BFF36F8F08BDB1
:1036240038B50446EFF31185102383F31288BFF3F2
:103634006F8F437B13F0280F0BD183680BB1FFF717
:10364400ACFF637B51B903F0FB0363732046FEF7C1
:103654004BFC85F31188BFF36F8F38BD03F0EB0388
:10366400F3E701211838FFF7DBBFEFF311811022D4
:1036740082F31288BFF36F8F027BD2070CD581F3DC
:103684001188BFF36F8F002383F31188BFF36F8F0B
:103694000423184602DF7047437B1B0704D581F3DC
:1036A4001188BFF36F8F70470122FEF751BC10B52C
:1036B400EFF31184102282F31288BFF36F8F036833
:1036C4003BB1FEF7BDFE002084F31188BFF36F8F7A
:1036D40010BD6FF01500F7E708B5FEF7CFFF08BD82
:1036E400FEF7CCBF0023C0E9081200F11802C0E9BC
:1036F4000622C0E9003303634363704710B50246F2
:1037040001448A42134603D01C780132002CF8D1BC
:10371400181A10BDF0B5C3F137070446FFB203F021
:103724001F031046082BE6B233D0102B3ED0650899
:10373400A40844EA817445EAC1752D194FEA91023F
:1037440042EB5102290941EA02716D1842EB12124F
:10375400290A41EA02616D1842EB1222290C41EA5E
:1037640002416D1842EB1242AD1842F10002EC081E
:1037740044EA4274D10804EB8402A6EB4205EDB29C
:10378400092D0CD90134A5F10A0541F10001EDB26E
:1037940012E0E40844EA417406F00705C90830352C
:1037A40054EA010200F8015BBCD1F0BD240944EAEB
:1037B400017406F00F050909092D84BFED19EDB256
:1037C400EDE70A44914200F1FF3300D1704710B590
:1037D40011F8014B03F8014F9142F9D110BD024495
:1037E4000346934200D1704703F8011BF9E7000038
:0C37F400014800687047000078020020C7
:08380000C8C9FF7F01000000B0
:103808001907000800000000C911000888380008DE
:103818000507000800000000000000009C380008B0
:1038280081130008003900088113000828390008AE
:103838008113000814390008F52E0008B038000874
:1038480081130008EC38000881130008D8380008F4
:1038580081130008C4380008791600083C390008AC
:1038680079160008503900083113000800000000DC
:1038780025190008000000000110000800000000E1
:10388800443F000800000000843C00086600002057
:1038980000000000A53F00087C3D0008803D0008AE
:1038A8007400002000000000263F0008000000000F
:1038B800000000006400002098020020513F00082A
:1038C800A03C0008183D00086800002018030020EC
:1038D8005F3F0008B43C0008183D00086A0000205B
:1038E800280300206D3F0008C83C0008183D000868
:1038F8006C000020380300207B3F0008DC3C0008F7
:10390800183D00086E00002048030020893F000889
:10391800F03C0008183D0008700000205803002003
:10392800973F0008043D0008183D00087200002079
:1039380068030020B63F0008903D0008283E0008B4
:103948007600002018000020C63F0008DC3D000873
:0C395800283E0008780000202800002015
:10396400000000009B2E0008000000009B2E0008B1
:10397400000000009B2E0008000000009B2E0008A1
:10398400000000009B2E0008000000009B2E000891
:10399400243F000825100008223F000825100008D5
:1039A400203F0008251000081E3F000825100008CD
:1039B4001C3F000825100008000000009B2E000892
:1039C400000000009B2E0008000000009B2E000851
:1039D400000000009B2E0008000000009B2E000841
:1039E400000000009B2E0008000000009B2E000831
:1039F400000000009B2E0008000000009B2E000821
:103A0400000000009B2E0008000000009B2E000810
:103A1400000000009B2E00081A3F00082510000833
:103A2400000000009B2E0008000000009B2E0008F0
:103A3400000000009B2E0008000000009B2E0008E0
:103A4400000000009B2E0008000000009B2E0008D0
:103A5400000000009B2E0008000000009B2E0008C0
:103A6400000000009B2E0008000000009B2E0008B0
:103A7400000000009B2E0008000000009B2E0008A0
:103A8400000000009B2E0008000000009B2E000890
:103A9400000000009B2E0008000000009B2E000880
:103AA400183F000825100008000000009B2E0008A5
:103AB400000000009B2E0008000000009B2E000860
:103AC400000000009B2E0008000000009B2E000850
:103AD400000000009B2E0008000000009B2E000840
:103AE400000000009B2E0008000000009B2E000830
:103AF400000000009B2E0008000000009B2E000820
:103B0400000000009B2E0008000000009B2E00080F
:103B1400000000009B2E0008000000009B2E0008FF
:103B2400000000009B2E0008000000009B2E0008EF
:103B3400000000009B2E0008000000009B2E0008DF
:103B4400000000009B2E0008000000009B2E0008CF
:103B5400000000009B2E0008000000009B2E0008BF
:103B6400000000009B2E0008000000009B2E0008AF
:103B7400000000009B2E0008000000009B2E00089F
:103B8400000000009B2E0008000000009B2E00088F
:103B9400000000009B2E0008000000009B2E00087F
:103BA400000000009B2E0008000000009B2E00086F
:103BB400000000009B2E0008000000009B2E00085F
:103BC400000000009B2E0008000000009B2E00084F
:103BD400000000009B2E0008000000009B2E00083F
:103BE400000000009B2E0008000000009B2E00082F
:103BF400000000009B2E0008000000009B2E00081F
:083C0400000000009B2E0008E7
:103C0C00180000000100000000390008010000004D
:103C1C0000390008000000002839000804000000EA
:103C2C0028390008000000002839000801000000B5
:103C3C001439000803000000283900080A000000AD
:103C4C00003900080D0001000000002000000000F9
:103C5C0000000B0602000000683C00080000000891
:103C6C00093F00082400020700000020113F000853
:103C7C001E000B1108000020872F0008BF2F000822
:103C8C0000000000691100083D3000080000000031
:103C9C00E32F0008FFFF000000140048050000009F
:103CAC001400000000004000FFFF0000001000485E
:103CBC00040000001400000000002000FFFF0000C2
:103CCC00000C00480300000014000000000010006D
:103CDC00FFFF000000080048020000001400000074
:103CEC0000000800FFFF0000000400480100000075
:103CFC001400000000000400FFFF0000000000485A
:103D0C000000000014000000000002000B3200084C
:103D1C00733000087F300008913000089B30000899
:103D2C00A5300008B1130008B330000800000000F3
:103D3C00283900081439000800390008EC3800084C
:103D4C00D8380008C438000800000000000000004B
:103D5C000000000000000000000000000000000057
:103D6C000000000000000000000000000000000047
:103D7C0000100240FB3200081B33000837330008E8
:103D8C0055330008004400409C3800081102000024
:103D9C00B43D00080100000000000000000000001D
:103DAC0000000000BC3D00081C00000000000200E8
:103DBC00C43D000801000000CC3D000802000000DA
:103DCC004700000000020000670000000000000037
:103DDC00003801409C3800088E010000003E0008AD
:103DEC0001000000000000000000000000000000C6
:103DFC00083E00081800000000400000103E0008BB
:103E0C0001000000183E000802000000270100001D
:103E1C000002000047010000000000005B340008B5
:103E2C0025340008CB330008A51700087B340008A4
:103E3C00083800080838000878380008803800086E
:103E4C0088380008883800080010000000304275DF
:103E5C0074746F6E207072657373656420256420B2
:103E6C0074696D65730A006572726F72206C65649B
:103E7C0020636F6E666967004572726F723A2062DA
:103E8C007574746F6E206465766963652025732084
:103E9C006973206E6F742072656164790A004572D3
:103EAC00726F722025643A206661696C65642074B7
:103EBC006F20636F6E66696775726520257320705D
:103ECC00696E2025640A004572726F722025643A6F
:103EDC00206661696C656420746F20636F6E66691F
:103EEC006775726520696E74657272757074206F77
:103EFC006E2025732070696E2025640A00464C41A3
:103F0C0053485F30005352414D5F30000A0605059F
:103F1C0004010301020101010001696E74657272F2
:103F2C007570742D636F6E74726F6C6C6572403447
:103F3C0030303130343030007263634034303032E2
:103F4C0031303030006770696F4034383030313484
:103F5C003030006770696F40343830303130303079
:103F6C00006770696F403438303030633030006730
:103F7C0070696F40343830303038303000677069D9
:103F8C006F403438303030343030006770696F40F7
:103F9C0034383030303030300072657365742D63D6
:103FAC006F6E74726F6C6C65720073657269616CA4
:103FBC004034303030343430300073657269616CA9
:103FCC004034303031333830300000000000000015
:103FDC000000010203040607080901020304050698
:103FEC000708090A0B0C0D0E0F1002030405060737
:103FFC0008090A0B0C0D0E0F10106D61696E002A6A
:10400C002A2A20426F6F74696E67205A657068792E
:10401C0072204F53206275696C642076332E372ED4
:10402C00302D7263332D37352D6764303665393555
:10403C00633439623735202A2A2A0A00286E756CB7
:0C404C006C29002A666C6F61742A000069
:10405800672E00086907000800000000EB2E000822
:104068000000000000000000000000002000002008
:1040780000C2010000010300000000003000002021
:1040880000C201000001030000127A003C00002079
:104098003C0000203F065B4F666D7D077F6F777C95
:1040A800395E7971FFFFFFFFFFFFFFFFFFFFFFFF93
:0440B800FFFFFFFF08
:1040BC0000000000000000000000000000000000F4
:0640CC00000000000000EE
:0440D20015E015E000
:0400000508000A8560
:00000001FF
